:100000000C9463000C948B000C948B000C94FB03F9
:100010000C94FB030C94FB030C948B000C948B004E
:100020000C948B000C948B000C948B000C94730438
:100030000C948B000C948B000C948B000C948B0014
:100040000C9459030C948B000C94C9030C94A303D7
:100050000C948B000C948B000C948B000C948B00F4
:100060000C948B000C948B000000000024002700EF
:100070002A0000000008000201000003040700003D
:1000800000000000000000000000230026002900FE
:1000900000000000250028002B00040404040404D0
:1000A0000404020202020202030303030303010227
:1000B00004081020408001020408102001020408F6
:1000C0001020F206D80911241FBECFEFD8E0DEBF02
:1000D000CDBF11E0A0E0B1E0E0E7FAE102C0059099
:1000E0000D92AA32B107D9F722E0AAE2B1E001C02D
:1000F0001D92A834B207E1F710E0C2E6D0E004C0D8
:100100002197FE010E94000CC136D107C9F70E9459
:10011000FA070C942B0D0C94000090E0FC01EE58B3
:10012000FF4F2491FC01E255FF4F3491FC01E6564C
:10013000FF4FE491EE23C9F0222339F0233001F17F
:10014000A8F4213019F1223029F1F0E0EE0FFF1F61
:10015000E057FF4FA591B4918FB7F894EC916111DE
:1001600026C030953E233C938FBF08952730A9F0D9
:100170002830C9F0243049F7809180008F7D03C07A
:10018000809180008F7780938000DFCF84B58F7758
:1001900084BDDBCF84B58F7DFBCF8091B0008F779E
:1001A0008093B000D2CF8091B0008F7DF9CF3E2BED
:1001B000DACFCF93DF9390E0FC01E255FF4F24911B
:1001C00086569F4FFC0184918823D1F090E0880FE0
:1001D000991FFC01E859FF4FA591B491FC01E0572C
:1001E000FF4FC591D49161110EC09FB7F8948C91C7
:1001F000E22FE0958E238C932881E223E8839FBF32
:10020000DF91CF9108958FB7F894EC91E22BEC93A6
:100210008FBFF6CF8E3008F08E5087708064809349
:100220007C0080917A00806480937A0080917A00CB
:1002300086FDFCCF809178009091790008953FB7BA
:10024000F8948091750190917601A0917701B09119
:10025000780126B5A89B05C02F3F19F00196A11D76
:10026000B11D3FBFBA2FA92F982F8827BC01CD0100
:10027000620F711D811D911D42E0660F771F881F5F
:10028000991F4A95D1F70895AF92BF92CF92DF920E
:10029000EF92FF920F931F93CF93DF936C017B013B
:1002A0008B01040F151FEB015E01AE18BF08C017CC
:1002B000D10759F06991D601ED91FC910190F0813F
:1002C000E02DC6010995892B79F7C501DF91CF9102
:1002D0001F910F91FF90EF90DF90CF90BF90AF9064
:1002E0000895FC01538D448D252F30E0842F90E03C
:1002F000821B930B541710F0CF9608950197089521
:10030000FC01918D828D981761F0A28DAE0FBF2FE9
:10031000B11D5D968C91928D9F5F9F73928F90E03F
:1003200008958FEF9FEF0895FC01918D828D9817AE
:1003300031F0828DE80FF11D858D90E008958FEFEB
:100340009FEF0895FC01918D228D892F90E0805CB4
:100350009F4F821B91098F739927089589E791E038
:100360000E94A20121E0892B09F420E0822F089548
:1003700080E090E0892B29F00E94AE0181110C945D
:1003800000000895FC01A48DA80FB92FB11DA35A38
:10039000BF4F2C91848D90E001968F739927848FA5
:1003A000A689B7892C93A089B1898C9183708064C8
:1003B0008C93938D848D981306C00288F389E02D69
:1003C00080818F7D80830895EF92FF920F931F931A
:1003D000CF93DF93EC0181E0888F9B8D8C8D9813F8
:1003E0001AC0E889F989808185FF15C09FB7F89404
:1003F000EE89FF896083E889F98980818370806450
:1004000080839FBF81E090E0DF91CF911F910F919A
:10041000FF90EF900895F62E0B8D10E00F5F1F4FA9
:100420000F731127E02E8C8D8E110CC00FB607FCB8
:10043000FACFE889F989808185FFF5CFCE010E9446
:10044000C201F1CFEB8DEC0FFD2FF11DE35AFF4FF1
:10045000F0829FB7F8940B8FEA89FB8980818062D4
:10046000CFCFCF93DF93EC01888D8823B9F0AA8991
:10047000BB89E889F9898C9185FD03C0808186FD5F
:100480000DC00FB607FCF7CF8C9185FFF2CF8081AE
:1004900085FFEDCFCE010E94C201E9CFDF91CF9160
:1004A000089520916C0130916D012817390771F47E
:1004B00090916A0180916B01981741F0E0916A0177
:1004C000F0E0E65DFE4F808190E008958FEF9FEFB2
:1004D00008950895EF92FF920F931F93CF93DF93A8
:1004E000DC015C96ED90FC905D97E114F10479F4E9
:1004F00081E090E013969C938E93129790E080E0B9
:10050000DF91CF911F910F91FF90EF900895519639
:10051000ED91FC91529750968C915097982F909511
:100520000FB75E962C915E97122F127021FD609589
:10053000F8942081112319F1282B2083E7012197BA
:10054000F1F728E0462F50E0308160FF1AC0382BC9
:100550003083E7012197F1F7BA017595679521502E
:1005600089F7112381F08081892380830FBF5C96F6
:100570008D919C910197F1F781E090E0C1CF292303
:10058000DCCF3923E5CF9081892BEFCF20916C010F
:1005900030916D012817390761F480916B0120912A
:1005A0006A0190E0805C9F4F821B91098F739927AD
:1005B000089590E080E0089520916C0130916D01E4
:1005C00028173907B9F490916A0180916B01981747
:1005D00089F0E0916A01F0E0E65DFE4F80812091B4
:1005E0006A0130E02F5F3F4F2F73332720936A015A
:1005F00090E008958FEF9FEF089590E080E00895D8
:100600008F929F92AF92BF92EF92FF920F931F93A0
:10061000CF93DF93CDB7DEB7A1970FB6F894DEBFC7
:100620000FBECDBF7C01FA01CB0119A2223008F424
:100630002AE08E010F5D1F4F822E912CB12CA12C30
:10064000BF01A50194010E94BF0BF901CA016A30E4
:1006500074F5605DD8016E938D01232B242B252B1F
:1006600079F790E080E0109789F0FD01019000207B
:10067000E9F73197AF014A1B5B0BD701ED91FC9174
:100680000280F381E02DB801C7010995A1960FB64C
:10069000F894DEBF0FBECDBFDF91CF911F910F91B8
:1006A000FF90EF90BF90AF909F908F900895695CFE
:1006B000D1CF1F920F920FB60F9211242F933F9319
:1006C0008F939F93AF93BF9380917101909172012B
:1006D000A0917301B09174013091700123E0230F58
:1006E0002D3758F50196A11DB11D209370018093FF
:1006F000710190937201A0937301B0937401809182
:10070000750190917601A0917701B09178010196E1
:10071000A11DB11D8093750190937601A09377017F
:10072000B0937801BF91AF919F918F913F912F919D
:100730000F900FBE0F901F90189526E8230F02967A
:10074000A11DB11DD2CF1F920F920FB60F9211248F
:100750002F933F934F935F936F937F938F939F93C9
:10076000AF93BF93EF93FF9389E791E00E94C2019B
:10077000FF91EF91BF91AF919F918F917F916F9179
:100780005F914F913F912F910F900FBE0F901F904F
:1007900018951F920F920FB60F9211242F938F93DB
:1007A0009F93EF93FF93E0918901F0918A018081FB
:1007B000E0918F01F091900182FD1BC090818091AA
:1007C00092018F5F8F7320919301821741F0E09126
:1007D0009201F0E0E758FE4F958F80939201FF91D0
:1007E000EF919F918F912F910F900FBE0F901F90BF
:1007F00018958081F4CF1F920F920FB60F9211249B
:100800002F933F934F935F936F937F938F939F9318
:10081000AF93BF93EF93FF93E0916C01F0916D0163
:10082000309749F0A685B7858585968D91FF14C0D0
:100830009C918923A1F4FF91EF91BF91AF919F917A
:100840008F917F916F915F914F913F912F910F9079
:100850000FBE0F901F9018959C91892361F7A38973
:10086000B4899C918589809589238C938689978901
:100870000197F1F7608D718DA685B785558538E0B4
:1008800020E0CB010197F1F7822F90E095958795B5
:10089000282F4C91452309F02068315091F7868D1F
:1008A00081FD209580916B0190E001968F739927CF
:1008B00030916A01381799F0A0916B01B0E0A65D04
:1008C000BE4F2C9380936B01828D938D0197F1F72E
:1008D000A389B4898C919589892B8C93ACCF868D13
:1008E0008160868FF1CF1F920F920FB60F92112465
:1008F0002F923F924F925F926F927F928F929F9230
:10090000AF92BF92CF92DF92EF92FF920F931F931D
:100910002F933F934F935F936F937F938F939F9307
:10092000AF93BF93EF93FF93CF93DF9300D000D0AB
:10093000CDB7DEB7F89420911602309117023A83B2
:100940002983F12CE12CD12CC12CA981BA811196DB
:100950008C9111978C151D04C1F0BCF01296ED918D
:10096000FC91EE0DFF1DFC83EB8380810E940A0148
:10097000AB81BC8119969C938E931897BFEFCB1ACD
:10098000DB0AEEE3EE0EF11CE0CF312C212C10E05F
:1009900000E050E6852E5AEE952EA12CB12CA981AF
:1009A000BA8111968C9111978017110609F00CF4F9
:1009B000EDC11296ED91FC91E20DF31DFC83EB83EA
:1009C00040A851A862A873A8808D918DA28DB38D87
:1009D000480E591E6A1E7B1E40AA51AA62AA73AA1B
:1009E00084899589A689B7897201E81AF90AF5AA56
:1009F000E4AA868597850C9797878687868597854D
:100A000097FDC3C086859785873F99400CF0C0C08D
:100A1000AB81BC811E968D919C91EB81FC81978767
:100A2000868780859185C2ACD3AC8C159D05CCF4AE
:100A30008285938565E070E00E94AB0BCB01880F47
:100A4000991F680F791F6E157F055CF4208531852D
:100A500080AD91AD2817390724F48085918591AF39
:100A600080AFAB81BC8118968D919C911997C81667
:100A7000D9069CF418962D913C911997D6968D9194
:100A80009C91D7978217930744F418968D919C9167
:100A90001997D7969C938E93D697BBEFEB16F104DC
:100AA0000CF4ACC0EB81FC8180859185C816D90619
:100AB0000CF0A4C084858111A1C08285938565E076
:100AC00070E00E94AB0BCB01880F991F680F791F54
:100AD0006E157F050CF092C021E0248784899589EA
:100AE000A689B789F201E81BF90BAB81BC811B9683
:100AF000FC93EE931A97FD01448A558A668A778A99
:100B000085AD882371F015AE7C96CD01C096AB8182
:100B1000BC811A962D913C91219331938E179F079A
:100B2000B1F7EB81FC8184AD8823A9F114AE21E0FB
:100B300025AFAB81BC8112968D919C91139797FD47
:100B400008C01C962C9161E0211101C060E00E9458
:100B50008D00EB81FC81E480F580F7FCEDC086859B
:100B600097856AE070E00E94AB0B7C836B8361E049
:100B70008E2D0E94D9002B813C81232B09F0ACC023
:100B800060E08E2D0E948D00D7C090E080E045CFC0
:100B900086EF99E042CFEB81FC817C964B815C81B2
:100BA000425D5F4F30E020E0828193818193919399
:100BB000280F391F4E175F07B9F7AB81BC811A9612
:100BC0008D919C911B979F969C938E939E97820FDD
:100BD000931F6AE070E00E94970B9B0150E040E099
:100BE000C501B4010E94E10BEB81FC8137832683B0
:100BF00021E0258786EF99E097878687AB81BC81C6
:100C000018968D919C9119978C159D053CF51C9615
:100C10008C911C97882311F11C961C921C97D896D6
:100C20004D915C91D997D6962D913C91D797241BE5
:100C3000350B53963C932E93529752968D919C91DF
:100C400097FD019695958795840F951FEB81FC8103
:100C500093AF82AF97AB86AB91AF80AFF5ECEF1659
:100C6000F9E0FF060CF465CFAB81BC8150968D9105
:100C70009C915197DB969C938E93DA97E0E0F2E09B
:100C8000D796FC93EE93D697D996FC93EE93D8978C
:100C900054964D925D926D927C925797E1E0DC966E
:100CA000EC93DC97DD961C92DD971D961C921D97A8
:100CB00017961C921E92169728E532E01B963C93DD
:100CC0002E931A971C961C921C9784E690E05396DC
:100CD0009C938E9352972DCF8B819C818F3F910552
:100CE00011F461E04ECFF701FF27EE58FF4FE4917A
:100CF000E33071F150F4E130D1F0E23019F1AB8121
:100D0000BC81A038B1056CF73BCFE73069F1E83022
:100D1000A1F1E430A1F7809180008062809380008F
:100D20002B813C8130938B0020938A0005C084B5D1
:100D3000806884BD9B8197BD0F5F1F4FBEE32B0E64
:100D4000311C2DCE84B5806284BDAB81A8BDF4CFAB
:100D500080918000806880938000EB81FC81F0931B
:100D60008900E0938800E8CF8091B000806880938C
:100D7000B0003B813093B300DFCF8091B000806240
:100D80008093B0008B818093B400D6CF81E0E9815D
:100D9000FA81808778940F900F900F900F90DF91D9
:100DA000CF91FF91EF91BF91AF919F918F917F91E3
:100DB0006F915F914F913F912F911F910F91FF90F4
:100DC000EF90DF90CF90BF90AF909F908F907F90EB
:100DD0006F905F904F903F902F900F900FBE0F90AD
:100DE0001F90189510927C0110927B0188EE93E081
:100DF000A0E0B0E080937D0190937E01A0937F01FD
:100E0000B09380018AE091E090937A018093790118
:100E100085EC90E0909386018093850184EC90E0CE
:100E2000909388018093870180EC90E090938A01F1
:100E30008093890181EC90E090938C0180938B01E9
:100E400082EC90E090938E0180938D0186EC90E08F
:100E50009093900180938F011092920110929301D0
:100E6000109294011092950110924102109240024A
:100E700082E090E0909343028093420287E392E005
:100E8000909317028093160281E0809338028EE3DC
:100E900090E00E94060CFC018EE090E0918380833C
:100EA0008FEF9FEF938382839583848382E090E02A
:100EB000A0E0B0E0808F918FA28FB38FDF015C96AE
:100EC000CF01C0961D921D92A817B907D9F71586B4
:100ED000178216828EEE92E093878287148610AA7C
:100EE00011AA12AA13AA148A158A168A178A80E0F0
:100EF00092E097AB86AB91AF80AF8089918993AF39
:100F000082AF84E690E0938B828B61E064AF15AE94
:100F100017861686F0933A02E093390210921B026C
:100F200010921A0288EE93E0A0E0B0E080931C02D9
:100F300090931D02A0931E02B0931F028CE191E0DA
:100F4000909319028093180210922F0210922E0291
:100F5000109231021092300210923302109232023B
:100F60001092350210923402809136028E7F8D7F6E
:100F70008093360286958170682788E00E948D00F4
:100F800061E088E00E94D900E6EBF0E0E491E093B4
:100F90002802E2EAF0E0E491F0E0EE0FFF1FE057F4
:100FA000FF4F8591949190932A028093290260E0EB
:100FB00087E00E94D9008091360281FD04C061E083
:100FC00087E00E948D0087E080932402E5EBF0E04B
:100FD000E491E0932502E1EAF0E0E491F0E0EE0F25
:100FE000FF1FEA57FF4F85919491909327028093BA
:100FF00026020895789484B5826084BD84B58160AA
:1010000084BD85B5826085BD85B5816085BD8091D3
:101010006E00816080936E0010928100809181004B
:101020008260809381008091810081608093810043
:10103000809180008160809380008091B100846005
:101040008093B1008091B00081608093B000809166
:101050007A00846080937A0080917A008260809325
:101060007A0080917A00816080937A0080917A0082
:10107000806880937A001092C100E0918901F0911C
:101080008A0182E08083E0918501F09186011082DF
:10109000E0918701F09188018FEC8083109291019B
:1010A000E0918D01F0918E0186E08083E0918B01CB
:1010B000F0918C01808180618083E0918B01F091BF
:1010C0008C01808188608083E0918B01F0918C019C
:1010D000808180688083E0918B01F0918C01808118
:1010E0008F7D80831092330210923202109231026F
:1010F0001092300210922F0210922E0281E09CE09A
:10110000909335028093340290912402963108F036
:1011100047C02FEE35E030932F0220932E022FEFA1
:101120003BE0309331022093300227EF38E03093D8
:101130003302209332022091680084E0983048F016
:1011400031E09E3008F430E081E001C0880F3A952C
:10115000EAF7822B809368002DE630E0983050F05B
:101160002BE630E09E3030F02CE630E0963110F087
:1011700030E020E030932C0220932B02292F30E026
:10118000983008F07CC081E001C0880F9A95EAF79A
:1011900080932D0280913402909135020197F1F7EE
:1011A0008091320290913302892B49F1E0916C01D8
:1011B000F0916D0182E0E831F80709F1309739F0DC
:1011C000A389B4899C918589809589238C9380918A
:1011D00036028E7F8093360210926B0110926A0164
:1011E00088E192E090936D0180936C01E0912B0275
:1011F000F0912C02808190912D02892B8083E091C7
:101200003902F0913A0211821082F89486E292E05B
:10121000918B808B93AF82AF7894F12CE12CD12C01
:10122000C12C809138028C151D04B1F1ACF1C09134
:101230003902D0913A02CE0DDF1D8A819B8197FD44
:1012400007C061E00E94D90060E08A810E948D00A1
:101250008C819D8197FD0CC061E00E94D900CC81FA
:1012600061E08C2F0E94D90060E08C2F0E948D00DD
:101270008FEFC81AD80A8EE3E80EF11CD2CF9E3049
:1012800040F42850310981E001C0880F2A95EAF71F
:101290007FCF2E503109F7CF0E941F016053784F46
:1012A0008F4F9F4F60933B0270933C0280933D02AF
:1012B00090933E0210923F021092370210928000EB
:1012C000109282008CE0809381008CE790E09093F4
:1012D00089008093880082E080936F007894C0E05A
:1012E000D0E080E00E940A016C0190936F0180932E
:1012F0006E0181E00E940A01BC01990F880B990BD5
:101300000E949E0A20E030E040E85AE30E942A0B47
:1013100020E030E44CE955E40E942A0B20E030E064
:1013200040E251E40E94F4090E94660A4B010D2C30
:10133000000CEE08FF082AE0B701A601F7FE0DC079
:101340006DE289E791E00E94E40144275527BA0144
:101350004C195D096E097F092AE089E791E00E9436
:101360000003092C000CAA08BB082AE0B501A4015F
:10137000B7FE0DC06DE288E192E00E946A02442748
:101380005527BA01481959096A097B092AE088E1F9
:1013900092E00E9400030E941F01209709F4A1CF50
:1013A0000E94AE01882309F49CCF0E94000099CFCF
:1013B0008CE191E0909319028093180280916C0166
:1013C00090916D018851924071F4E0912B02F0915F
:1013D0002C02908180912D02809589238083109228
:1013E0006D0110926C0108950E94080A0C94F00A95
:1013F0000E94E90A58F00E94E20A40F029F45F3F97
:1014000029F00C94D90A51110C94240B0C94DF0A86
:101410000E94010B68F39923B1F3552391F3951BB7
:10142000550BBB27AA2762177307840738F09F5F05
:101430005F4F220F331F441FAA1FA9F335D00E2E72
:101440003AF0E0E832D091505040E695001CCAF7DF
:101450002BD0FE2F29D0660F771F881FBB1F2617A2
:1014600037074807AB07B0E809F0BB0B802DBF0179
:10147000FF2793585F4F3AF09E3F510578F00C9448
:10148000D90A0C94240B5F3FE4F3983ED4F386957D
:1014900077956795B795F7959F5FC9F7880F911D69
:1014A0009695879597F90895E1E0660F771F881F55
:1014B000BB1F621773078407BA0720F0621B730B08
:1014C000840BBA0BEE1F88F7E09508950E946D0A11
:1014D0006894B1110C94240B08950E94090B88F0B4
:1014E0009F5798F0B92F9927B751B0F0E1F0660FE8
:1014F000771F881F991F1AF0BA95C9F714C0B13029
:1015000091F00E94230BB1E008950C94230B672FF8
:10151000782F8827B85F39F0B93FCCF38695779557
:101520006795B395D9F73EF4909580957095619540
:101530007F4F8F4F9F4F0895E89409C097FB3EF46B
:1015400090958095709561957F4F8F4F9F4F992310
:10155000A9F0F92F96E9BB279395F695879577958E
:101560006795B795F111F8CFFAF4BB0F11F460FF4E
:101570001BC06F5F7F4F8F4F9F4F16C0882311F0A6
:1015800096E911C0772321F09EE8872F762F05C0BA
:10159000662371F096E8862F70E060E02AF09A9555
:1015A000660F771F881FDAF7880F9695879597F94A
:1015B000089597F99F6780E870E060E008959FEFD5
:1015C00080EC089500240A941616170618060906DA
:1015D000089500240A9412161306140605060895A9
:1015E000092E0394000C11F4882352F0BB0F40F431
:1015F000BF2B11F460FF04C06F5F7F4F8F4F9F4F71
:10160000089557FD9058440F551F59F05F3F71F0F2
:101610004795880F97FB991F61F09F3F79F0879559
:101620000895121613061406551FF2CF4695F1DFE2
:1016300008C0161617061806991FF1CF8695710572
:10164000610508940895E894BB2766277727CB01A6
:1016500097F908950E943D0B0C94F00A0E94E20A4B
:1016600038F00E94E90A20F0952311F00C94D90A71
:101670000C94DF0A11240C94240B0E94010B70F3CC
:10168000959FC1F3950F50E0551F629FF001729F27
:10169000BB27F00DB11D639FAA27F00DB11DAA1F36
:1016A000649F6627B00DA11D661F829F2227B00D83
:1016B000A11D621F739FB00DA11D621F839FA00D0E
:1016C000611D221F749F3327A00D611D231F849F5E
:1016D000600D211D822F762F6A2F11249F575040B5
:1016E0009AF0F1F088234AF0EE0FFF1FBB1F661F30
:1016F000771F881F91505040A9F79E3F510580F0F9
:101700000C94D90A0C94240B5F3FE4F3983ED4F375
:10171000869577956795B795F795E7959F5FC1F79C
:10172000FE2B880F911D9695879597F90895AA1B12
:10173000BB1B51E107C0AA1FBB1FA617B70710F0BC
:10174000A61BB70B881F991F5A95A9F780959095EE
:10175000BC01CD01089597FB072E16F4009407D025
:1017600077FD09D00E94970B07FC05D03EF49095B9
:1017700081959F4F0895709561957F4F0895A1E2DF
:101780001A2EAA1BBB1BFD010DC0AA1FBB1FEE1FFB
:10179000FF1FA217B307E407F50720F0A21BB30B46
:1017A000E40BF50B661F771F881F991F1A9469F7C2
:1017B00060957095809590959B01AC01BD01CF011E
:1017C0000895052E97FB1EF400940E94F80B57FD18
:1017D00007D00E94BF0B07FC03D04EF40C94F80B0B
:1017E00050954095309521953F4F4F4F5F4F08954D
:1017F00090958095709561957F4F8F4F9F4F08957D
:10180000EE0FFF1F0590F491E02D09940F931F93A5
:10181000CF93DF938230910510F482E090E0E09165
:101820004602F091470230E020E0B0E0A0E03097BF
:1018300099F42115310509F44AC0281B390B2430CD
:101840003105D8F58A819B816115710589F1FB010C
:1018500093838283FE0111C04081518102811381F3
:1018600048175907E0F04817590799F4109761F0A5
:1018700012960C93129713961C933296CF01DF9118
:10188000CF911F910F910895009346021093470244
:10189000F4CF2115310551F04217530738F0A90153
:1018A000DB019A01BD01DF01F801C1CFEF01F9CFE2
:1018B0009093470280934602CDCFFE01E20FF31FC3
:1018C000819391932250310939832883D7CF209176
:1018D000440230914502232B41F4209102013091C2
:1018E000030130934502209344022091000130917E
:1018F00001012115310541F42DB73EB74091040196
:1019000050910501241B350BE0914402F0914502F2
:10191000E217F307A0F42E1B3F0B2817390778F0C6
:10192000AC014E5F5F4F2417350748F04E0F5F1F25
:101930005093450240934402819391939FCFF0E0EE
:10194000E0E09CCFCF93DF930097E9F0FC01329762
:1019500013821282A0914602B0914702ED0130E05D
:1019600020E01097A1F420813181820F931F2091F4
:101970004402309145022817390709F061C0F093FD
:101980004502E0934402DF91CF910895EA01CE171A
:10199000DF07E8F54A815B819E0141155105B1F7EA
:1019A000E901FB83EA8349915991C40FD51FEC17D4
:1019B000FD0761F4808191810296840F951FE901F2
:1019C00099838883828193819B838A83F0E0E0E01E
:1019D00012968D919C9113970097B9F52D913C919A
:1019E0001197CD010296820F931F209144023091EE
:1019F00045022817390739F6309751F510924702FA
:101A000010924602B0934502A0934402BCCFD38308
:101A1000C28340815181840F951FC817D90761F493
:101A20004E5F5F4F88819981480F591F51834083D2
:101A30008A819B81938382832115310509F0B0CF80
:101A4000F0934702E09346029ECFFD01DC01C0CF38
:101A500013821282D7CF10E0C2E6D0E004C0FE01AC
:101A60000E94000C2196C336D107C9F7F894FFCF26
:101A700000004802800000000000E4014401710100
:101A80003102A20180019401000000006A024401B9
:0A1A9000FD026902C602DC025102E9
:00000001FF
